{
	"data": {
		"bytecode": {
			"linkReferences": {},
			"object": "608060405234801561000f575f80fd5b5060405161139f38038061139f833981810160405281019061003191906100d5565b8060035f6101000a81548173ffffffffffffffffffffffffffffffffffffffff021916908373ffffffffffffffffffffffffffffffffffffffff16021790555050610100565b5f80fd5b5f73ffffffffffffffffffffffffffffffffffffffff82169050919050565b5f6100a48261007b565b9050919050565b6100b48161009a565b81146100be575f80fd5b50565b5f815190506100cf816100ab565b92915050565b5f602082840312156100ea576100e9610077565b5b5f6100f7848285016100c1565b91505092915050565b6112928061010d5f395ff3fe608060405260043610610054575f3560e01c8063125b0b341461005857806353b6286614610080578063542a61d21461009c5780637acc0b20146100d85780638da5cb5b14610116578063e0f6ef8714610140575b5f80fd5b348015610063575f80fd5b5061007e6004803603810190610079919061080a565b61016a565b005b61009a60048036038101906100959190610876565b61038d565b005b3480156100a7575f80fd5b506100c260048036038101906100bd91906108b4565b610587565b6040516100cf919061090a565b60405180910390f35b3480156100e3575f80fd5b506100fe60048036038101906100f99190610923565b6105b4565b60405161010d939291906109ae565b60405180910390f35b348015610121575f80fd5b5061012a61065f565b6040516101379190610a29565b60405180910390f35b34801561014b575f80fd5b50610154610684565b604051610161919061090a565b60405180910390f35b60035f9054906101000a900473ffffffffffffffffffffffffffffffffffffffff1673ffffffffffffffffffffffffffffffffffffffff163373ffffffffffffffffffffffffffffffffffffffff16146101f9576040517f08c379a00000000000000000000000000000000000000000000000000000000081526004016101f090610ab2565b60405180910390fd5b5f821161023b576040517f08c379a000000000000000000000000000000000000000000000000000000000815260040161023290610b1a565b60405180910390fd5b5f811161027d576040517f08c379a000000000000000000000000000000000000000000000000000000000815260040161027490610b82565b60405180910390fd5b5f60018460405161028e9190610bda565b908152602001604051809103902054146102f3575f6001846040516102b39190610bda565b9081526020016040518091039020549050815f808381526020019081526020015f206002015f8282546102e69190610c1d565b9250508190555050610388565b60025f81548092919061030590610c50565b91905055506040518060600160405280848152602001838152602001828152505f8060025481526020019081526020015f205f820151815f01908161034a9190610e91565b5060208201518160010155604082015181600201559050506002546001846040516103759190610bda565b9081526020016040518091039020819055505b505050565b5f805f8481526020019081526020015f2090505f831180156103b157506002548311155b6103f0576040517f08c379a00000000000000000000000000000000000000000000000000000000081526004016103e790610faa565b60405180910390fd5b8060010154341015610437576040517f08c379a000000000000000000000000000000000000000000000000000000000815260040161042e90611038565b60405180910390fd5b5f81600201541161047d576040517f08c379a0000000000000000000000000000000000000000000000000000000008152600401610474906110a0565b60405180910390fd5b81816002015410156104c4576040517f08c379a00000000000000000000000000000000000000000000000000000000081526004016104bb9061112e565b60405180910390fd5b60035f9054906101000a900473ffffffffffffffffffffffffffffffffffffffff1673ffffffffffffffffffffffffffffffffffffffff166108fc3490811502906040515f60405180830381858888f19350505050158015610528573d5f803e3d5ffd5b50818160020154610539919061114c565b81600201819055507fa0e58a48882e3c9076cbae38a07550b6746689c9602537306dc239266a46375733825f01836001015460405161057a93929190611220565b60405180910390a1505050565b6001818051602081018201805184825260208301602085012081835280955050505050505f915090505481565b5f602052805f5260405f205f91509050805f0180546105d290610cc4565b80601f01602080910402602001604051908101604052809291908181526020018280546105fe90610cc4565b80156106495780601f1061062057610100808354040283529160200191610649565b820191905f5260205f20905b81548152906001019060200180831161062c57829003601f168201915b5050505050908060010154908060020154905083565b60035f9054906101000a900473ffffffffffffffffffffffffffffffffffffffff1681565b60025481565b5f604051905090565b5f80fd5b5f80fd5b5f80fd5b5f80fd5b5f601f19601f8301169050919050565b7f4e487b71000000000000000000000000000000000000000000000000000000005f52604160045260245ffd5b6106e9826106a3565b810181811067ffffffffffffffff82111715610708576107076106b3565b5b80604052505050565b5f61071a61068a565b905061072682826106e0565b919050565b5f67ffffffffffffffff821115610745576107446106b3565b5b61074e826106a3565b9050602081019050919050565b828183375f83830152505050565b5f61077b6107768461072b565b610711565b9050828152602081018484840111156107975761079661069f565b5b6107a284828561075b565b509392505050565b5f82601f8301126107be576107bd61069b565b5b81356107ce848260208601610769565b91505092915050565b5f819050919050565b6107e9816107d7565b81146107f3575f80fd5b50565b5f81359050610804816107e0565b92915050565b5f805f6060848603121561082157610820610693565b5b5f84013567ffffffffffffffff81111561083e5761083d610697565b5b61084a868287016107aa565b935050602061085b868287016107f6565b925050604061086c868287016107f6565b9150509250925092565b5f806040838503121561088c5761088b610693565b5b5f610899858286016107f6565b92505060206108aa858286016107f6565b9150509250929050565b5f602082840312156108c9576108c8610693565b5b5f82013567ffffffffffffffff8111156108e6576108e5610697565b5b6108f2848285016107aa565b91505092915050565b610904816107d7565b82525050565b5f60208201905061091d5f8301846108fb565b92915050565b5f6020828403121561093857610937610693565b5b5f610945848285016107f6565b91505092915050565b5f81519050919050565b5f82825260208201905092915050565b8281835e5f83830152505050565b5f6109808261094e565b61098a8185610958565b935061099a818560208601610968565b6109a3816106a3565b840191505092915050565b5f6060820190508181035f8301526109c68186610976565b90506109d560208301856108fb565b6109e260408301846108fb565b949350505050565b5f73ffffffffffffffffffffffffffffffffffffffff82169050919050565b5f610a13826109ea565b9050919050565b610a2381610a09565b82525050565b5f602082019050610a3c5f830184610a1a565b92915050565b7f53616d6f20766c61736e696b206d6f7a6520697a767273697469206f767520615f8201527f6b63696a752e0000000000000000000000000000000000000000000000000000602082015250565b5f610a9c602683610958565b9150610aa782610a42565b604082019050919050565b5f6020820190508181035f830152610ac981610a90565b9050919050565b7f43656e61206d6f726120626974692076656361206f6420302e000000000000005f82015250565b5f610b04601983610958565b9150610b0f82610ad0565b602082019050919050565b5f6020820190508181035f830152610b3181610af8565b9050919050565b7f4b6f6c6963696e61206d6f726120626974692076656361206f6420302e0000005f82015250565b5f610b6c601d83610958565b9150610b7782610b38565b602082019050919050565b5f6020820190508181035f830152610b9981610b60565b9050919050565b5f81905092915050565b5f610bb48261094e565b610bbe8185610ba0565b9350610bce818560208601610968565b80840191505092915050565b5f610be58284610baa565b915081905092915050565b7f4e487b71000000000000000000000000000000000000000000000000000000005f52601160045260245ffd5b5f610c27826107d7565b9150610c32836107d7565b9250828201905080821115610c4a57610c49610bf0565b5b92915050565b5f610c5a826107d7565b91507fffffffffffffffffffffffffffffffffffffffffffffffffffffffffffffffff8203610c8c57610c8b610bf0565b5b600182019050919050565b7f4e487b71000000000000000000000000000000000000000000000000000000005f52602260045260245ffd5b5f6002820490506001821680610cdb57607f821691505b602082108103610cee57610ced610c97565b5b50919050565b5f819050815f5260205f209050919050565b5f6020601f8301049050919050565b5f82821b905092915050565b5f60088302610d507fffffffffffffffffffffffffffffffffffffffffffffffffffffffffffffffff82610d15565b610d5a8683610d15565b95508019841693508086168417925050509392505050565b5f819050919050565b5f610d95610d90610d8b846107d7565b610d72565b6107d7565b9050919050565b5f819050919050565b610dae83610d7b565b610dc2610dba82610d9c565b848454610d21565b825550505050565b5f90565b610dd6610dca565b610de1818484610da5565b505050565b5b81811015610e0457610df95f82610dce565b600181019050610de7565b5050565b601f821115610e4957610e1a81610cf4565b610e2384610d06565b81016020851015610e32578190505b610e46610e3e85610d06565b830182610de6565b50505b505050565b5f82821c905092915050565b5f610e695f1984600802610e4e565b1980831691505092915050565b5f610e818383610e5a565b9150826002028217905092915050565b610e9a8261094e565b67ffffffffffffffff811115610eb357610eb26106b3565b5b610ebd8254610cc4565b610ec8828285610e08565b5f60209050601f831160018114610ef9575f8415610ee7578287015190505b610ef18582610e76565b865550610f58565b601f198416610f0786610cf4565b5f5b82811015610f2e57848901518255600182019150602085019450602081019050610f09565b86831015610f4b5784890151610f47601f891682610e5a565b8355505b6001600288020188555050505b505050505050565b7f50726f697a766f64206e6520706f73746f6a692e0000000000000000000000005f82015250565b5f610f94601483610958565b9150610f9f82610f60565b602082019050919050565b5f6020820190508181035f830152610fc181610f88565b9050919050565b7f4e65646f766f6c6a6e6f20737265647374617661207a61206b75706f76696e755f8201527f2e00000000000000000000000000000000000000000000000000000000000000602082015250565b5f611022602183610958565b915061102d82610fc8565b604082019050919050565b5f6020820190508181035f83015261104f81611016565b9050919050565b7f50726f697a766f64206e696a65206e61207a616c6968616d612e0000000000005f82015250565b5f61108a601a83610958565b915061109582611056565b602082019050919050565b5f6020820190508181035f8301526110b78161107e565b9050919050565b7f4e656d6120646f766f6c6a6e6f2070726f697a766f6461206e61206c616765725f8201527f752e000000000000000000000000000000000000000000000000000000000000602082015250565b5f611118602283610958565b9150611123826110be565b604082019050919050565b5f6020820190508181035f8301526111458161110c565b9050919050565b5f611156826107d7565b9150611161836107d7565b925082820390508181111561117957611178610bf0565b5b92915050565b5f611189826109ea565b9050919050565b6111998161117f565b82525050565b5f81546111ab81610cc4565b6111b58186610958565b9450600182165f81146111cf57600181146111e557611217565b60ff198316865281151560200286019350611217565b6111ee85610cf4565b5f5b8381101561120f578154818901526001820191506020810190506111f0565b808801955050505b50505092915050565b5f6060820190506112335f830186611190565b8181036020830152611245818561119f565b905061125460408301846108fb565b94935050505056fea26469706673582212207f60072d727d9454809af6606e675018472326996c5ff4f02eaaa848e4849f5864736f6c634300081a0033",
			"opcodes": "PUSH1 0x80 PUSH1 0x40 MSTORE CALLVALUE DUP1 ISZERO PUSH2 0xF JUMPI PUSH0 DUP1 REVERT JUMPDEST POP PUSH1 0x40 MLOAD PUSH2 0x139F CODESIZE SUB DUP1 PUSH2 0x139F DUP4 CODECOPY DUP2 DUP2 ADD PUSH1 0x40 MSTORE DUP2 ADD SWAP1 PUSH2 0x31 SWAP2 SWAP1 PUSH2 0xD5 JUMP JUMPDEST DUP1 PUSH1 0x3 PUSH0 PUSH2 0x100 EXP DUP2 SLOAD DUP2 PUSH20 0xFFFFFFFFFFFFFFFFFFFFFFFFFFFFFFFFFFFFFFFF MUL NOT AND SWAP1 DUP4 PUSH20 0xFFFFFFFFFFFFFFFFFFFFFFFFFFFFFFFFFFFFFFFF AND MUL OR SWAP1 SSTORE POP POP PUSH2 0x100 JUMP JUMPDEST PUSH0 DUP1 REVERT JUMPDEST PUSH0 PUSH20 0xFFFFFFFFFFFFFFFFFFFFFFFFFFFFFFFFFFFFFFFF DUP3 AND SWAP1 POP SWAP2 SWAP1 POP JUMP JUMPDEST PUSH0 PUSH2 0xA4 DUP3 PUSH2 0x7B JUMP JUMPDEST SWAP1 POP SWAP2 SWAP1 POP JUMP JUMPDEST PUSH2 0xB4 DUP2 PUSH2 0x9A JUMP JUMPDEST DUP2 EQ PUSH2 0xBE JUMPI PUSH0 DUP1 REVERT JUMPDEST POP JUMP JUMPDEST PUSH0 DUP2 MLOAD SWAP1 POP PUSH2 0xCF DUP2 PUSH2 0xAB JUMP JUMPDEST SWAP3 SWAP2 POP POP JUMP JUMPDEST PUSH0 PUSH1 0x20 DUP3 DUP5 SUB SLT ISZERO PUSH2 0xEA JUMPI PUSH2 0xE9 PUSH2 0x77 JUMP JUMPDEST JUMPDEST PUSH0 PUSH2 0xF7 DUP5 DUP3 DUP6 ADD PUSH2 0xC1 JUMP JUMPDEST SWAP2 POP POP SWAP3 SWAP2 POP POP JUMP JUMPDEST PUSH2 0x1292 DUP1 PUSH2 0x10D PUSH0 CODECOPY PUSH0 RETURN INVALID PUSH1 0x80 PUSH1 0x40 MSTORE PUSH1 0x4 CALLDATASIZE LT PUSH2 0x54 JUMPI PUSH0 CALLDATALOAD PUSH1 0xE0 SHR DUP1 PUSH4 0x125B0B34 EQ PUSH2 0x58 JUMPI DUP1 PUSH4 0x53B62866 EQ PUSH2 0x80 JUMPI DUP1 PUSH4 0x542A61D2 EQ PUSH2 0x9C JUMPI DUP1 PUSH4 0x7ACC0B20 EQ PUSH2 0xD8 JUMPI DUP1 PUSH4 0x8DA5CB5B EQ PUSH2 0x116 JUMPI DUP1 PUSH4 0xE0F6EF87 EQ PUSH2 0x140 JUMPI JUMPDEST PUSH0 DUP1 REVERT JUMPDEST CALLVALUE DUP1 ISZERO PUSH2 0x63 JUMPI PUSH0 DUP1 REVERT JUMPDEST POP PUSH2 0x7E PUSH1 0x4 DUP1 CALLDATASIZE SUB DUP2 ADD SWAP1 PUSH2 0x79 SWAP2 SWAP1 PUSH2 0x80A JUMP JUMPDEST PUSH2 0x16A JUMP JUMPDEST STOP JUMPDEST PUSH2 0x9A PUSH1 0x4 DUP1 CALLDATASIZE SUB DUP2 ADD SWAP1 PUSH2 0x95 SWAP2 SWAP1 PUSH2 0x876 JUMP JUMPDEST PUSH2 0x38D JUMP JUMPDEST STOP JUMPDEST CALLVALUE DUP1 ISZERO PUSH2 0xA7 JUMPI PUSH0 DUP1 REVERT JUMPDEST POP PUSH2 0xC2 PUSH1 0x4 DUP1 CALLDATASIZE SUB DUP2 ADD SWAP1 PUSH2 0xBD SWAP2 SWAP1 PUSH2 0x8B4 JUMP JUMPDEST PUSH2 0x587 JUMP JUMPDEST PUSH1 0x40 MLOAD PUSH2 0xCF SWAP2 SWAP1 PUSH2 0x90A JUMP JUMPDEST PUSH1 0x40 MLOAD DUP1 SWAP2 SUB SWAP1 RETURN JUMPDEST CALLVALUE DUP1 ISZERO PUSH2 0xE3 JUMPI PUSH0 DUP1 REVERT JUMPDEST POP PUSH2 0xFE PUSH1 0x4 DUP1 CALLDATASIZE SUB DUP2 ADD SWAP1 PUSH2 0xF9 SWAP2 SWAP1 PUSH2 0x923 JUMP JUMPDEST PUSH2 0x5B4 JUMP JUMPDEST PUSH1 0x40 MLOAD PUSH2 0x10D SWAP4 SWAP3 SWAP2 SWAP1 PUSH2 0x9AE JUMP JUMPDEST PUSH1 0x40 MLOAD DUP1 SWAP2 SUB SWAP1 RETURN JUMPDEST CALLVALUE DUP1 ISZERO PUSH2 0x121 JUMPI PUSH0 DUP1 REVERT JUMPDEST POP PUSH2 0x12A PUSH2 0x65F JUMP JUMPDEST PUSH1 0x40 MLOAD PUSH2 0x137 SWAP2 SWAP1 PUSH2 0xA29 JUMP JUMPDEST PUSH1 0x40 MLOAD DUP1 SWAP2 SUB SWAP1 RETURN JUMPDEST CALLVALUE DUP1 ISZERO PUSH2 0x14B JUMPI PUSH0 DUP1 REVERT JUMPDEST POP PUSH2 0x154 PUSH2 0x684 JUMP JUMPDEST PUSH1 0x40 MLOAD PUSH2 0x161 SWAP2 SWAP1 PUSH2 0x90A JUMP JUMPDEST PUSH1 0x40 MLOAD DUP1 SWAP2 SUB SWAP1 RETURN JUMPDEST PUSH1 0x3 PUSH0 SWAP1 SLOAD SWAP1 PUSH2 0x100 EXP SWAP1 DIV PUSH20 0xFFFFFFFFFFFFFFFFFFFFFFFFFFFFFFFFFFFFFFFF AND PUSH20 0xFFFFFFFFFFFFFFFFFFFFFFFFFFFFFFFFFFFFFFFF AND CALLER PUSH20 0xFFFFFFFFFFFFFFFFFFFFFFFFFFFFFFFFFFFFFFFF AND EQ PUSH2 0x1F9 JUMPI PUSH1 0x40 MLOAD PUSH32 0x8C379A000000000000000000000000000000000000000000000000000000000 DUP2 MSTORE PUSH1 0x4 ADD PUSH2 0x1F0 SWAP1 PUSH2 0xAB2 JUMP JUMPDEST PUSH1 0x40 MLOAD DUP1 SWAP2 SUB SWAP1 REVERT JUMPDEST PUSH0 DUP3 GT PUSH2 0x23B JUMPI PUSH1 0x40 MLOAD PUSH32 0x8C379A000000000000000000000000000000000000000000000000000000000 DUP2 MSTORE PUSH1 0x4 ADD PUSH2 0x232 SWAP1 PUSH2 0xB1A JUMP JUMPDEST PUSH1 0x40 MLOAD DUP1 SWAP2 SUB SWAP1 REVERT JUMPDEST PUSH0 DUP2 GT PUSH2 0x27D JUMPI PUSH1 0x40 MLOAD PUSH32 0x8C379A000000000000000000000000000000000000000000000000000000000 DUP2 MSTORE PUSH1 0x4 ADD PUSH2 0x274 SWAP1 PUSH2 0xB82 JUMP JUMPDEST PUSH1 0x40 MLOAD DUP1 SWAP2 SUB SWAP1 REVERT JUMPDEST PUSH0 PUSH1 0x1 DUP5 PUSH1 0x40 MLOAD PUSH2 0x28E SWAP2 SWAP1 PUSH2 0xBDA JUMP JUMPDEST SWAP1 DUP2 MSTORE PUSH1 0x20 ADD PUSH1 0x40 MLOAD DUP1 SWAP2 SUB SWAP1 KECCAK256 SLOAD EQ PUSH2 0x2F3 JUMPI PUSH0 PUSH1 0x1 DUP5 PUSH1 0x40 MLOAD PUSH2 0x2B3 SWAP2 SWAP1 PUSH2 0xBDA JUMP JUMPDEST SWAP1 DUP2 MSTORE PUSH1 0x20 ADD PUSH1 0x40 MLOAD DUP1 SWAP2 SUB SWAP1 KECCAK256 SLOAD SWAP1 POP DUP2 PUSH0 DUP1 DUP4 DUP2 MSTORE PUSH1 0x20 ADD SWAP1 DUP2 MSTORE PUSH1 0x20 ADD PUSH0 KECCAK256 PUSH1 0x2 ADD PUSH0 DUP3 DUP3 SLOAD PUSH2 0x2E6 SWAP2 SWAP1 PUSH2 0xC1D JUMP JUMPDEST SWAP3 POP POP DUP2 SWAP1 SSTORE POP POP PUSH2 0x388 JUMP JUMPDEST PUSH1 0x2 PUSH0 DUP2 SLOAD DUP1 SWAP3 SWAP2 SWAP1 PUSH2 0x305 SWAP1 PUSH2 0xC50 JUMP JUMPDEST SWAP2 SWAP1 POP SSTORE POP PUSH1 0x40 MLOAD DUP1 PUSH1 0x60 ADD PUSH1 0x40 MSTORE DUP1 DUP5 DUP2 MSTORE PUSH1 0x20 ADD DUP4 DUP2 MSTORE PUSH1 0x20 ADD DUP3 DUP2 MSTORE POP PUSH0 DUP1 PUSH1 0x2 SLOAD DUP2 MSTORE PUSH1 0x20 ADD SWAP1 DUP2 MSTORE PUSH1 0x20 ADD PUSH0 KECCAK256 PUSH0 DUP3 ADD MLOAD DUP2 PUSH0 ADD SWAP1 DUP2 PUSH2 0x34A SWAP2 SWAP1 PUSH2 0xE91 JUMP JUMPDEST POP PUSH1 0x20 DUP3 ADD MLOAD DUP2 PUSH1 0x1 ADD SSTORE PUSH1 0x40 DUP3 ADD MLOAD DUP2 PUSH1 0x2 ADD SSTORE SWAP1 POP POP PUSH1 0x2 SLOAD PUSH1 0x1 DUP5 PUSH1 0x40 MLOAD PUSH2 0x375 SWAP2 SWAP1 PUSH2 0xBDA JUMP JUMPDEST SWAP1 DUP2 MSTORE PUSH1 0x20 ADD PUSH1 0x40 MLOAD DUP1 SWAP2 SUB SWAP1 KECCAK256 DUP2 SWAP1 SSTORE POP JUMPDEST POP POP POP JUMP JUMPDEST PUSH0 DUP1 PUSH0 DUP5 DUP2 MSTORE PUSH1 0x20 ADD SWAP1 DUP2 MSTORE PUSH1 0x20 ADD PUSH0 KECCAK256 SWAP1 POP PUSH0 DUP4 GT DUP1 ISZERO PUSH2 0x3B1 JUMPI POP PUSH1 0x2 SLOAD DUP4 GT ISZERO JUMPDEST PUSH2 0x3F0 JUMPI PUSH1 0x40 MLOAD PUSH32 0x8C379A000000000000000000000000000000000000000000000000000000000 DUP2 MSTORE PUSH1 0x4 ADD PUSH2 0x3E7 SWAP1 PUSH2 0xFAA JUMP JUMPDEST PUSH1 0x40 MLOAD DUP1 SWAP2 SUB SWAP1 REVERT JUMPDEST DUP1 PUSH1 0x1 ADD SLOAD CALLVALUE LT ISZERO PUSH2 0x437 JUMPI PUSH1 0x40 MLOAD PUSH32 0x8C379A000000000000000000000000000000000000000000000000000000000 DUP2 MSTORE PUSH1 0x4 ADD PUSH2 0x42E SWAP1 PUSH2 0x1038 JUMP JUMPDEST PUSH1 0x40 MLOAD DUP1 SWAP2 SUB SWAP1 REVERT JUMPDEST PUSH0 DUP2 PUSH1 0x2 ADD SLOAD GT PUSH2 0x47D JUMPI PUSH1 0x40 MLOAD PUSH32 0x8C379A000000000000000000000000000000000000000000000000000000000 DUP2 MSTORE PUSH1 0x4 ADD PUSH2 0x474 SWAP1 PUSH2 0x10A0 JUMP JUMPDEST PUSH1 0x40 MLOAD DUP1 SWAP2 SUB SWAP1 REVERT JUMPDEST DUP2 DUP2 PUSH1 0x2 ADD SLOAD LT ISZERO PUSH2 0x4C4 JUMPI PUSH1 0x40 MLOAD PUSH32 0x8C379A000000000000000000000000000000000000000000000000000000000 DUP2 MSTORE PUSH1 0x4 ADD PUSH2 0x4BB SWAP1 PUSH2 0x112E JUMP JUMPDEST PUSH1 0x40 MLOAD DUP1 SWAP2 SUB SWAP1 REVERT JUMPDEST PUSH1 0x3 PUSH0 SWAP1 SLOAD SWAP1 PUSH2 0x100 EXP SWAP1 DIV PUSH20 0xFFFFFFFFFFFFFFFFFFFFFFFFFFFFFFFFFFFFFFFF AND PUSH20 0xFFFFFFFFFFFFFFFFFFFFFFFFFFFFFFFFFFFFFFFF AND PUSH2 0x8FC CALLVALUE SWAP1 DUP2 ISZERO MUL SWAP1 PUSH1 0x40 MLOAD PUSH0 PUSH1 0x40 MLOAD DUP1 DUP4 SUB DUP2 DUP6 DUP9 DUP9 CALL SWAP4 POP POP POP POP ISZERO DUP1 ISZERO PUSH2 0x528 JUMPI RETURNDATASIZE PUSH0 DUP1 RETURNDATACOPY RETURNDATASIZE PUSH0 REVERT JUMPDEST POP DUP2 DUP2 PUSH1 0x2 ADD SLOAD PUSH2 0x539 SWAP2 SWAP1 PUSH2 0x114C JUMP JUMPDEST DUP2 PUSH1 0x2 ADD DUP2 SWAP1 SSTORE POP PUSH32 0xA0E58A48882E3C9076CBAE38A07550B6746689C9602537306DC239266A463757 CALLER DUP3 PUSH0 ADD DUP4 PUSH1 0x1 ADD SLOAD PUSH1 0x40 MLOAD PUSH2 0x57A SWAP4 SWAP3 SWAP2 SWAP1 PUSH2 0x1220 JUMP JUMPDEST PUSH1 0x40 MLOAD DUP1 SWAP2 SUB SWAP1 LOG1 POP POP POP JUMP JUMPDEST PUSH1 0x1 DUP2 DUP1 MLOAD PUSH1 0x20 DUP2 ADD DUP3 ADD DUP1 MLOAD DUP5 DUP3 MSTORE PUSH1 0x20 DUP4 ADD PUSH1 0x20 DUP6 ADD KECCAK256 DUP2 DUP4 MSTORE DUP1 SWAP6 POP POP POP POP POP POP PUSH0 SWAP2 POP SWAP1 POP SLOAD DUP2 JUMP JUMPDEST PUSH0 PUSH1 0x20 MSTORE DUP1 PUSH0 MSTORE PUSH1 0x40 PUSH0 KECCAK256 PUSH0 SWAP2 POP SWAP1 POP DUP1 PUSH0 ADD DUP1 SLOAD PUSH2 0x5D2 SWAP1 PUSH2 0xCC4 JUMP JUMPDEST DUP1 PUSH1 0x1F ADD PUSH1 0x20 DUP1 SWAP2 DIV MUL PUSH1 0x20 ADD PUSH1 0x40 MLOAD SWAP1 DUP2 ADD PUSH1 0x40 MSTORE DUP1 SWAP3 SWAP2 SWAP1 DUP2 DUP2 MSTORE PUSH1 0x20 ADD DUP3 DUP1 SLOAD PUSH2 0x5FE SWAP1 PUSH2 0xCC4 JUMP JUMPDEST DUP1 ISZERO PUSH2 0x649 JUMPI DUP1 PUSH1 0x1F LT PUSH2 0x620 JUMPI PUSH2 0x100 DUP1 DUP4 SLOAD DIV MUL DUP4 MSTORE SWAP2 PUSH1 0x20 ADD SWAP2 PUSH2 0x649 JUMP JUMPDEST DUP3 ADD SWAP2 SWAP1 PUSH0 MSTORE PUSH1 0x20 PUSH0 KECCAK256 SWAP1 JUMPDEST DUP2 SLOAD DUP2 MSTORE SWAP1 PUSH1 0x1 ADD SWAP1 PUSH1 0x20 ADD DUP1 DUP4 GT PUSH2 0x62C JUMPI DUP3 SWAP1 SUB PUSH1 0x1F AND DUP3 ADD SWAP2 JUMPDEST POP POP POP POP POP SWAP1 DUP1 PUSH1 0x1 ADD SLOAD SWAP1 DUP1 PUSH1 0x2 ADD SLOAD SWAP1 POP DUP4 JUMP JUMPDEST PUSH1 0x3 PUSH0 SWAP1 SLOAD SWAP1 PUSH2 0x100 EXP SWAP1 DIV PUSH20 0xFFFFFFFFFFFFFFFFFFFFFFFFFFFFFFFFFFFFFFFF AND DUP2 JUMP JUMPDEST PUSH1 0x2 SLOAD DUP2 JUMP JUMPDEST PUSH0 PUSH1 0x40 MLOAD SWAP1 POP SWAP1 JUMP JUMPDEST PUSH0 DUP1 REVERT JUMPDEST PUSH0 DUP1 REVERT JUMPDEST PUSH0 DUP1 REVERT JUMPDEST PUSH0 DUP1 REVERT JUMPDEST PUSH0 PUSH1 0x1F NOT PUSH1 0x1F DUP4 ADD AND SWAP1 POP SWAP2 SWAP1 POP JUMP JUMPDEST PUSH32 0x4E487B7100000000000000000000000000000000000000000000000000000000 PUSH0 MSTORE PUSH1 0x41 PUSH1 0x4 MSTORE PUSH1 0x24 PUSH0 REVERT JUMPDEST PUSH2 0x6E9 DUP3 PUSH2 0x6A3 JUMP JUMPDEST DUP2 ADD DUP2 DUP2 LT PUSH8 0xFFFFFFFFFFFFFFFF DUP3 GT OR ISZERO PUSH2 0x708 JUMPI PUSH2 0x707 PUSH2 0x6B3 JUMP JUMPDEST JUMPDEST DUP1 PUSH1 0x40 MSTORE POP POP POP JUMP JUMPDEST PUSH0 PUSH2 0x71A PUSH2 0x68A JUMP JUMPDEST SWAP1 POP PUSH2 0x726 DUP3 DUP3 PUSH2 0x6E0 JUMP JUMPDEST SWAP2 SWAP1 POP JUMP JUMPDEST PUSH0 PUSH8 0xFFFFFFFFFFFFFFFF DUP3 GT ISZERO PUSH2 0x745 JUMPI PUSH2 0x744 PUSH2 0x6B3 JUMP JUMPDEST JUMPDEST PUSH2 0x74E DUP3 PUSH2 0x6A3 JUMP JUMPDEST SWAP1 POP PUSH1 0x20 DUP2 ADD SWAP1 POP SWAP2 SWAP1 POP JUMP JUMPDEST DUP3 DUP2 DUP4 CALLDATACOPY PUSH0 DUP4 DUP4 ADD MSTORE POP POP POP JUMP JUMPDEST PUSH0 PUSH2 0x77B PUSH2 0x776 DUP5 PUSH2 0x72B JUMP JUMPDEST PUSH2 0x711 JUMP JUMPDEST SWAP1 POP DUP3 DUP2 MSTORE PUSH1 0x20 DUP2 ADD DUP5 DUP5 DUP5 ADD GT ISZERO PUSH2 0x797 JUMPI PUSH2 0x796 PUSH2 0x69F JUMP JUMPDEST JUMPDEST PUSH2 0x7A2 DUP5 DUP3 DUP6 PUSH2 0x75B JUMP JUMPDEST POP SWAP4 SWAP3 POP POP POP JUMP JUMPDEST PUSH0 DUP3 PUSH1 0x1F DUP4 ADD SLT PUSH2 0x7BE JUMPI PUSH2 0x7BD PUSH2 0x69B JUMP JUMPDEST JUMPDEST DUP2 CALLDATALOAD PUSH2 0x7CE DUP5 DUP3 PUSH1 0x20 DUP7 ADD PUSH2 0x769 JUMP JUMPDEST SWAP2 POP POP SWAP3 SWAP2 POP POP JUMP JUMPDEST PUSH0 DUP2 SWAP1 POP SWAP2 SWAP1 POP JUMP JUMPDEST PUSH2 0x7E9 DUP2 PUSH2 0x7D7 JUMP JUMPDEST DUP2 EQ PUSH2 0x7F3 JUMPI PUSH0 DUP1 REVERT JUMPDEST POP JUMP JUMPDEST PUSH0 DUP2 CALLDATALOAD SWAP1 POP PUSH2 0x804 DUP2 PUSH2 0x7E0 JUMP JUMPDEST SWAP3 SWAP2 POP POP JUMP JUMPDEST PUSH0 DUP1 PUSH0 PUSH1 0x60 DUP5 DUP7 SUB SLT ISZERO PUSH2 0x821 JUMPI PUSH2 0x820 PUSH2 0x693 JUMP JUMPDEST JUMPDEST PUSH0 DUP5 ADD CALLDATALOAD PUSH8 0xFFFFFFFFFFFFFFFF DUP2 GT ISZERO PUSH2 0x83E JUMPI PUSH2 0x83D PUSH2 0x697 JUMP JUMPDEST JUMPDEST PUSH2 0x84A DUP7 DUP3 DUP8 ADD PUSH2 0x7AA JUMP JUMPDEST SWAP4 POP POP PUSH1 0x20 PUSH2 0x85B DUP7 DUP3 DUP8 ADD PUSH2 0x7F6 JUMP JUMPDEST SWAP3 POP POP PUSH1 0x40 PUSH2 0x86C DUP7 DUP3 DUP8 ADD PUSH2 0x7F6 JUMP JUMPDEST SWAP2 POP POP SWAP3 POP SWAP3 POP SWAP3 JUMP JUMPDEST PUSH0 DUP1 PUSH1 0x40 DUP4 DUP6 SUB SLT ISZERO PUSH2 0x88C JUMPI PUSH2 0x88B PUSH2 0x693 JUMP JUMPDEST JUMPDEST PUSH0 PUSH2 0x899 DUP6 DUP3 DUP7 ADD PUSH2 0x7F6 JUMP JUMPDEST SWAP3 POP POP PUSH1 0x20 PUSH2 0x8AA DUP6 DUP3 DUP7 ADD PUSH2 0x7F6 JUMP JUMPDEST SWAP2 POP POP SWAP3 POP SWAP3 SWAP1 POP JUMP JUMPDEST PUSH0 PUSH1 0x20 DUP3 DUP5 SUB SLT ISZERO PUSH2 0x8C9 JUMPI PUSH2 0x8C8 PUSH2 0x693 JUMP JUMPDEST JUMPDEST PUSH0 DUP3 ADD CALLDATALOAD PUSH8 0xFFFFFFFFFFFFFFFF DUP2 GT ISZERO PUSH2 0x8E6 JUMPI PUSH2 0x8E5 PUSH2 0x697 JUMP JUMPDEST JUMPDEST PUSH2 0x8F2 DUP5 DUP3 DUP6 ADD PUSH2 0x7AA JUMP JUMPDEST SWAP2 POP POP SWAP3 SWAP2 POP POP JUMP JUMPDEST PUSH2 0x904 DUP2 PUSH2 0x7D7 JUMP JUMPDEST DUP3 MSTORE POP POP JUMP JUMPDEST PUSH0 PUSH1 0x20 DUP3 ADD SWAP1 POP PUSH2 0x91D PUSH0 DUP4 ADD DUP5 PUSH2 0x8FB JUMP JUMPDEST SWAP3 SWAP2 POP POP JUMP JUMPDEST PUSH0 PUSH1 0x20 DUP3 DUP5 SUB SLT ISZERO PUSH2 0x938 JUMPI PUSH2 0x937 PUSH2 0x693 JUMP JUMPDEST JUMPDEST PUSH0 PUSH2 0x945 DUP5 DUP3 DUP6 ADD PUSH2 0x7F6 JUMP JUMPDEST SWAP2 POP POP SWAP3 SWAP2 POP POP JUMP JUMPDEST PUSH0 DUP2 MLOAD SWAP1 POP SWAP2 SWAP1 POP JUMP JUMPDEST PUSH0 DUP3 DUP3 MSTORE PUSH1 0x20 DUP3 ADD SWAP1 POP SWAP3 SWAP2 POP POP JUMP JUMPDEST DUP3 DUP2 DUP4 MCOPY PUSH0 DUP4 DUP4 ADD MSTORE POP POP POP JUMP JUMPDEST PUSH0 PUSH2 0x980 DUP3 PUSH2 0x94E JUMP JUMPDEST PUSH2 0x98A DUP2 DUP6 PUSH2 0x958 JUMP JUMPDEST SWAP4 POP PUSH2 0x99A DUP2 DUP6 PUSH1 0x20 DUP7 ADD PUSH2 0x968 JUMP JUMPDEST PUSH2 0x9A3 DUP2 PUSH2 0x6A3 JUMP JUMPDEST DUP5 ADD SWAP2 POP POP SWAP3 SWAP2 POP POP JUMP JUMPDEST PUSH0 PUSH1 0x60 DUP3 ADD SWAP1 POP DUP2 DUP2 SUB PUSH0 DUP4 ADD MSTORE PUSH2 0x9C6 DUP2 DUP7 PUSH2 0x976 JUMP JUMPDEST SWAP1 POP PUSH2 0x9D5 PUSH1 0x20 DUP4 ADD DUP6 PUSH2 0x8FB JUMP JUMPDEST PUSH2 0x9E2 PUSH1 0x40 DUP4 ADD DUP5 PUSH2 0x8FB JUMP JUMPDEST SWAP5 SWAP4 POP POP POP POP JUMP JUMPDEST PUSH0 PUSH20 0xFFFFFFFFFFFFFFFFFFFFFFFFFFFFFFFFFFFFFFFF DUP3 AND SWAP1 POP SWAP2 SWAP1 POP JUMP JUMPDEST PUSH0 PUSH2 0xA13 DUP3 PUSH2 0x9EA JUMP JUMPDEST SWAP1 POP SWAP2 SWAP1 POP JUMP JUMPDEST PUSH2 0xA23 DUP2 PUSH2 0xA09 JUMP JUMPDEST DUP3 MSTORE POP POP JUMP JUMPDEST PUSH0 PUSH1 0x20 DUP3 ADD SWAP1 POP PUSH2 0xA3C PUSH0 DUP4 ADD DUP5 PUSH2 0xA1A JUMP JUMPDEST SWAP3 SWAP2 POP POP JUMP JUMPDEST PUSH32 0x53616D6F20766C61736E696B206D6F7A6520697A767273697469206F76752061 PUSH0 DUP3 ADD MSTORE PUSH32 0x6B63696A752E0000000000000000000000000000000000000000000000000000 PUSH1 0x20 DUP3 ADD MSTORE POP JUMP JUMPDEST PUSH0 PUSH2 0xA9C PUSH1 0x26 DUP4 PUSH2 0x958 JUMP JUMPDEST SWAP2 POP PUSH2 0xAA7 DUP3 PUSH2 0xA42 JUMP JUMPDEST PUSH1 0x40 DUP3 ADD SWAP1 POP SWAP2 SWAP1 POP JUMP JUMPDEST PUSH0 PUSH1 0x20 DUP3 ADD SWAP1 POP DUP2 DUP2 SUB PUSH0 DUP4 ADD MSTORE PUSH2 0xAC9 DUP2 PUSH2 0xA90 JUMP JUMPDEST SWAP1 POP SWAP2 SWAP1 POP JUMP JUMPDEST PUSH32 0x43656E61206D6F726120626974692076656361206F6420302E00000000000000 PUSH0 DUP3 ADD MSTORE POP JUMP JUMPDEST PUSH0 PUSH2 0xB04 PUSH1 0x19 DUP4 PUSH2 0x958 JUMP JUMPDEST SWAP2 POP PUSH2 0xB0F DUP3 PUSH2 0xAD0 JUMP JUMPDEST PUSH1 0x20 DUP3 ADD SWAP1 POP SWAP2 SWAP1 POP JUMP JUMPDEST PUSH0 PUSH1 0x20 DUP3 ADD SWAP1 POP DUP2 DUP2 SUB PUSH0 DUP4 ADD MSTORE PUSH2 0xB31 DUP2 PUSH2 0xAF8 JUMP JUMPDEST SWAP1 POP SWAP2 SWAP1 POP JUMP JUMPDEST PUSH32 0x4B6F6C6963696E61206D6F726120626974692076656361206F6420302E000000 PUSH0 DUP3 ADD MSTORE POP JUMP JUMPDEST PUSH0 PUSH2 0xB6C PUSH1 0x1D DUP4 PUSH2 0x958 JUMP JUMPDEST SWAP2 POP PUSH2 0xB77 DUP3 PUSH2 0xB38 JUMP JUMPDEST PUSH1 0x20 DUP3 ADD SWAP1 POP SWAP2 SWAP1 POP JUMP JUMPDEST PUSH0 PUSH1 0x20 DUP3 ADD SWAP1 POP DUP2 DUP2 SUB PUSH0 DUP4 ADD MSTORE PUSH2 0xB99 DUP2 PUSH2 0xB60 JUMP JUMPDEST SWAP1 POP SWAP2 SWAP1 POP JUMP JUMPDEST PUSH0 DUP2 SWAP1 POP SWAP3 SWAP2 POP POP JUMP JUMPDEST PUSH0 PUSH2 0xBB4 DUP3 PUSH2 0x94E JUMP JUMPDEST PUSH2 0xBBE DUP2 DUP6 PUSH2 0xBA0 JUMP JUMPDEST SWAP4 POP PUSH2 0xBCE DUP2 DUP6 PUSH1 0x20 DUP7 ADD PUSH2 0x968 JUMP JUMPDEST DUP1 DUP5 ADD SWAP2 POP POP SWAP3 SWAP2 POP POP JUMP JUMPDEST PUSH0 PUSH2 0xBE5 DUP3 DUP5 PUSH2 0xBAA JUMP JUMPDEST SWAP2 POP DUP2 SWAP1 POP SWAP3 SWAP2 POP POP JUMP JUMPDEST PUSH32 0x4E487B7100000000000000000000000000000000000000000000000000000000 PUSH0 MSTORE PUSH1 0x11 PUSH1 0x4 MSTORE PUSH1 0x24 PUSH0 REVERT JUMPDEST PUSH0 PUSH2 0xC27 DUP3 PUSH2 0x7D7 JUMP JUMPDEST SWAP2 POP PUSH2 0xC32 DUP4 PUSH2 0x7D7 JUMP JUMPDEST SWAP3 POP DUP3 DUP3 ADD SWAP1 POP DUP1 DUP3 GT ISZERO PUSH2 0xC4A JUMPI PUSH2 0xC49 PUSH2 0xBF0 JUMP JUMPDEST JUMPDEST SWAP3 SWAP2 POP POP JUMP JUMPDEST PUSH0 PUSH2 0xC5A DUP3 PUSH2 0x7D7 JUMP JUMPDEST SWAP2 POP PUSH32 0xFFFFFFFFFFFFFFFFFFFFFFFFFFFFFFFFFFFFFFFFFFFFFFFFFFFFFFFFFFFFFFFF DUP3 SUB PUSH2 0xC8C JUMPI PUSH2 0xC8B PUSH2 0xBF0 JUMP JUMPDEST JUMPDEST PUSH1 0x1 DUP3 ADD SWAP1 POP SWAP2 SWAP1 POP JUMP JUMPDEST PUSH32 0x4E487B7100000000000000000000000000000000000000000000000000000000 PUSH0 MSTORE PUSH1 0x22 PUSH1 0x4 MSTORE PUSH1 0x24 PUSH0 REVERT JUMPDEST PUSH0 PUSH1 0x2 DUP3 DIV SWAP1 POP PUSH1 0x1 DUP3 AND DUP1 PUSH2 0xCDB JUMPI PUSH1 0x7F DUP3 AND SWAP2 POP JUMPDEST PUSH1 0x20 DUP3 LT DUP2 SUB PUSH2 0xCEE JUMPI PUSH2 0xCED PUSH2 0xC97 JUMP JUMPDEST JUMPDEST POP SWAP2 SWAP1 POP JUMP JUMPDEST PUSH0 DUP2 SWAP1 POP DUP2 PUSH0 MSTORE PUSH1 0x20 PUSH0 KECCAK256 SWAP1 POP SWAP2 SWAP1 POP JUMP JUMPDEST PUSH0 PUSH1 0x20 PUSH1 0x1F DUP4 ADD DIV SWAP1 POP SWAP2 SWAP1 POP JUMP JUMPDEST PUSH0 DUP3 DUP3 SHL SWAP1 POP SWAP3 SWAP2 POP POP JUMP JUMPDEST PUSH0 PUSH1 0x8 DUP4 MUL PUSH2 0xD50 PUSH32 0xFFFFFFFFFFFFFFFFFFFFFFFFFFFFFFFFFFFFFFFFFFFFFFFFFFFFFFFFFFFFFFFF DUP3 PUSH2 0xD15 JUMP JUMPDEST PUSH2 0xD5A DUP7 DUP4 PUSH2 0xD15 JUMP JUMPDEST SWAP6 POP DUP1 NOT DUP5 AND SWAP4 POP DUP1 DUP7 AND DUP5 OR SWAP3 POP POP POP SWAP4 SWAP3 POP POP POP JUMP JUMPDEST PUSH0 DUP2 SWAP1 POP SWAP2 SWAP1 POP JUMP JUMPDEST PUSH0 PUSH2 0xD95 PUSH2 0xD90 PUSH2 0xD8B DUP5 PUSH2 0x7D7 JUMP JUMPDEST PUSH2 0xD72 JUMP JUMPDEST PUSH2 0x7D7 JUMP JUMPDEST SWAP1 POP SWAP2 SWAP1 POP JUMP JUMPDEST PUSH0 DUP2 SWAP1 POP SWAP2 SWAP1 POP JUMP JUMPDEST PUSH2 0xDAE DUP4 PUSH2 0xD7B JUMP JUMPDEST PUSH2 0xDC2 PUSH2 0xDBA DUP3 PUSH2 0xD9C JUMP JUMPDEST DUP5 DUP5 SLOAD PUSH2 0xD21 JUMP JUMPDEST DUP3 SSTORE POP POP POP POP JUMP JUMPDEST PUSH0 SWAP1 JUMP JUMPDEST PUSH2 0xDD6 PUSH2 0xDCA JUMP JUMPDEST PUSH2 0xDE1 DUP2 DUP5 DUP5 PUSH2 0xDA5 JUMP JUMPDEST POP POP POP JUMP JUMPDEST JUMPDEST DUP2 DUP2 LT ISZERO PUSH2 0xE04 JUMPI PUSH2 0xDF9 PUSH0 DUP3 PUSH2 0xDCE JUMP JUMPDEST PUSH1 0x1 DUP2 ADD SWAP1 POP PUSH2 0xDE7 JUMP JUMPDEST POP POP JUMP JUMPDEST PUSH1 0x1F DUP3 GT ISZERO PUSH2 0xE49 JUMPI PUSH2 0xE1A DUP2 PUSH2 0xCF4 JUMP JUMPDEST PUSH2 0xE23 DUP5 PUSH2 0xD06 JUMP JUMPDEST DUP2 ADD PUSH1 0x20 DUP6 LT ISZERO PUSH2 0xE32 JUMPI DUP2 SWAP1 POP JUMPDEST PUSH2 0xE46 PUSH2 0xE3E DUP6 PUSH2 0xD06 JUMP JUMPDEST DUP4 ADD DUP3 PUSH2 0xDE6 JUMP JUMPDEST POP POP JUMPDEST POP POP POP JUMP JUMPDEST PUSH0 DUP3 DUP3 SHR SWAP1 POP SWAP3 SWAP2 POP POP JUMP JUMPDEST PUSH0 PUSH2 0xE69 PUSH0 NOT DUP5 PUSH1 0x8 MUL PUSH2 0xE4E JUMP JUMPDEST NOT DUP1 DUP4 AND SWAP2 POP POP SWAP3 SWAP2 POP POP JUMP JUMPDEST PUSH0 PUSH2 0xE81 DUP4 DUP4 PUSH2 0xE5A JUMP JUMPDEST SWAP2 POP DUP3 PUSH1 0x2 MUL DUP3 OR SWAP1 POP SWAP3 SWAP2 POP POP JUMP JUMPDEST PUSH2 0xE9A DUP3 PUSH2 0x94E JUMP JUMPDEST PUSH8 0xFFFFFFFFFFFFFFFF DUP2 GT ISZERO PUSH2 0xEB3 JUMPI PUSH2 0xEB2 PUSH2 0x6B3 JUMP JUMPDEST JUMPDEST PUSH2 0xEBD DUP3 SLOAD PUSH2 0xCC4 JUMP JUMPDEST PUSH2 0xEC8 DUP3 DUP3 DUP6 PUSH2 0xE08 JUMP JUMPDEST PUSH0 PUSH1 0x20 SWAP1 POP PUSH1 0x1F DUP4 GT PUSH1 0x1 DUP2 EQ PUSH2 0xEF9 JUMPI PUSH0 DUP5 ISZERO PUSH2 0xEE7 JUMPI DUP3 DUP8 ADD MLOAD SWAP1 POP JUMPDEST PUSH2 0xEF1 DUP6 DUP3 PUSH2 0xE76 JUMP JUMPDEST DUP7 SSTORE POP PUSH2 0xF58 JUMP JUMPDEST PUSH1 0x1F NOT DUP5 AND PUSH2 0xF07 DUP7 PUSH2 0xCF4 JUMP JUMPDEST PUSH0 JUMPDEST DUP3 DUP2 LT ISZERO PUSH2 0xF2E JUMPI DUP5 DUP10 ADD MLOAD DUP3 SSTORE PUSH1 0x1 DUP3 ADD SWAP2 POP PUSH1 0x20 DUP6 ADD SWAP5 POP PUSH1 0x20 DUP2 ADD SWAP1 POP PUSH2 0xF09 JUMP JUMPDEST DUP7 DUP4 LT ISZERO PUSH2 0xF4B JUMPI DUP5 DUP10 ADD MLOAD PUSH2 0xF47 PUSH1 0x1F DUP10 AND DUP3 PUSH2 0xE5A JUMP JUMPDEST DUP4 SSTORE POP JUMPDEST PUSH1 0x1 PUSH1 0x2 DUP9 MUL ADD DUP9 SSTORE POP POP POP JUMPDEST POP POP POP POP POP POP JUMP JUMPDEST PUSH32 0x50726F697A766F64206E6520706F73746F6A692E000000000000000000000000 PUSH0 DUP3 ADD MSTORE POP JUMP JUMPDEST PUSH0 PUSH2 0xF94 PUSH1 0x14 DUP4 PUSH2 0x958 JUMP JUMPDEST SWAP2 POP PUSH2 0xF9F DUP3 PUSH2 0xF60 JUMP JUMPDEST PUSH1 0x20 DUP3 ADD SWAP1 POP SWAP2 SWAP1 POP JUMP JUMPDEST PUSH0 PUSH1 0x20 DUP3 ADD SWAP1 POP DUP2 DUP2 SUB PUSH0 DUP4 ADD MSTORE PUSH2 0xFC1 DUP2 PUSH2 0xF88 JUMP JUMPDEST SWAP1 POP SWAP2 SWAP1 POP JUMP JUMPDEST PUSH32 0x4E65646F766F6C6A6E6F20737265647374617661207A61206B75706F76696E75 PUSH0 DUP3 ADD MSTORE PUSH32 0x2E00000000000000000000000000000000000000000000000000000000000000 PUSH1 0x20 DUP3 ADD MSTORE POP JUMP JUMPDEST PUSH0 PUSH2 0x1022 PUSH1 0x21 DUP4 PUSH2 0x958 JUMP JUMPDEST SWAP2 POP PUSH2 0x102D DUP3 PUSH2 0xFC8 JUMP JUMPDEST PUSH1 0x40 DUP3 ADD SWAP1 POP SWAP2 SWAP1 POP JUMP JUMPDEST PUSH0 PUSH1 0x20 DUP3 ADD SWAP1 POP DUP2 DUP2 SUB PUSH0 DUP4 ADD MSTORE PUSH2 0x104F DUP2 PUSH2 0x1016 JUMP JUMPDEST SWAP1 POP SWAP2 SWAP1 POP JUMP JUMPDEST PUSH32 0x50726F697A766F64206E696A65206E61207A616C6968616D612E000000000000 PUSH0 DUP3 ADD MSTORE POP JUMP JUMPDEST PUSH0 PUSH2 0x108A PUSH1 0x1A DUP4 PUSH2 0x958 JUMP JUMPDEST SWAP2 POP PUSH2 0x1095 DUP3 PUSH2 0x1056 JUMP JUMPDEST PUSH1 0x20 DUP3 ADD SWAP1 POP SWAP2 SWAP1 POP JUMP JUMPDEST PUSH0 PUSH1 0x20 DUP3 ADD SWAP1 POP DUP2 DUP2 SUB PUSH0 DUP4 ADD MSTORE PUSH2 0x10B7 DUP2 PUSH2 0x107E JUMP JUMPDEST SWAP1 POP SWAP2 SWAP1 POP JUMP JUMPDEST PUSH32 0x4E656D6120646F766F6C6A6E6F2070726F697A766F6461206E61206C61676572 PUSH0 DUP3 ADD MSTORE PUSH32 0x752E000000000000000000000000000000000000000000000000000000000000 PUSH1 0x20 DUP3 ADD MSTORE POP JUMP JUMPDEST PUSH0 PUSH2 0x1118 PUSH1 0x22 DUP4 PUSH2 0x958 JUMP JUMPDEST SWAP2 POP PUSH2 0x1123 DUP3 PUSH2 0x10BE JUMP JUMPDEST PUSH1 0x40 DUP3 ADD SWAP1 POP SWAP2 SWAP1 POP JUMP JUMPDEST PUSH0 PUSH1 0x20 DUP3 ADD SWAP1 POP DUP2 DUP2 SUB PUSH0 DUP4 ADD MSTORE PUSH2 0x1145 DUP2 PUSH2 0x110C JUMP JUMPDEST SWAP1 POP SWAP2 SWAP1 POP JUMP JUMPDEST PUSH0 PUSH2 0x1156 DUP3 PUSH2 0x7D7 JUMP JUMPDEST SWAP2 POP PUSH2 0x1161 DUP4 PUSH2 0x7D7 JUMP JUMPDEST SWAP3 POP DUP3 DUP3 SUB SWAP1 POP DUP2 DUP2 GT ISZERO PUSH2 0x1179 JUMPI PUSH2 0x1178 PUSH2 0xBF0 JUMP JUMPDEST JUMPDEST SWAP3 SWAP2 POP POP JUMP JUMPDEST PUSH0 PUSH2 0x1189 DUP3 PUSH2 0x9EA JUMP JUMPDEST SWAP1 POP SWAP2 SWAP1 POP JUMP JUMPDEST PUSH2 0x1199 DUP2 PUSH2 0x117F JUMP JUMPDEST DUP3 MSTORE POP POP JUMP JUMPDEST PUSH0 DUP2 SLOAD PUSH2 0x11AB DUP2 PUSH2 0xCC4 JUMP JUMPDEST PUSH2 0x11B5 DUP2 DUP7 PUSH2 0x958 JUMP JUMPDEST SWAP5 POP PUSH1 0x1 DUP3 AND PUSH0 DUP2 EQ PUSH2 0x11CF JUMPI PUSH1 0x1 DUP2 EQ PUSH2 0x11E5 JUMPI PUSH2 0x1217 JUMP JUMPDEST PUSH1 0xFF NOT DUP4 AND DUP7 MSTORE DUP2 ISZERO ISZERO PUSH1 0x20 MUL DUP7 ADD SWAP4 POP PUSH2 0x1217 JUMP JUMPDEST PUSH2 0x11EE DUP6 PUSH2 0xCF4 JUMP JUMPDEST PUSH0 JUMPDEST DUP4 DUP2 LT ISZERO PUSH2 0x120F JUMPI DUP2 SLOAD DUP2 DUP10 ADD MSTORE PUSH1 0x1 DUP3 ADD SWAP2 POP PUSH1 0x20 DUP2 ADD SWAP1 POP PUSH2 0x11F0 JUMP JUMPDEST DUP1 DUP9 ADD SWAP6 POP POP POP JUMPDEST POP POP POP SWAP3 SWAP2 POP POP JUMP JUMPDEST PUSH0 PUSH1 0x60 DUP3 ADD SWAP1 POP PUSH2 0x1233 PUSH0 DUP4 ADD DUP7 PUSH2 0x1190 JUMP JUMPDEST DUP2 DUP2 SUB PUSH1 0x20 DUP4 ADD MSTORE PUSH2 0x1245 DUP2 DUP6 PUSH2 0x119F JUMP JUMPDEST SWAP1 POP PUSH2 0x1254 PUSH1 0x40 DUP4 ADD DUP5 PUSH2 0x8FB JUMP JUMPDEST SWAP5 SWAP4 POP POP POP POP JUMP INVALID LOG2 PUSH5 0x6970667358 0x22 SLT KECCAK256 PUSH32 0x60072D727D9454809AF6606E675018472326996C5FF4F02EAAA848E4849F5864 PUSH20 0x6F6C634300081A00330000000000000000000000 "
		},
		"gasEstimates": {
			"creation": {
				"codeDepositCost": "950800",
				"executionCost": "infinite",
				"totalCost": "infinite"
			},
			"external": {
				"addProduct(string,uint256,uint256)": "infinite",
				"buyProduct(uint256,uint256)": "infinite",
				"owner()": "2574",
				"productCount()": "2513",
				"productIds(string)": "infinite",
				"products(uint256)": "infinite"
			}
		},
		"methodIdentifiers": {
			"addProduct(string,uint256,uint256)": "125b0b34",
			"buyProduct(uint256,uint256)": "53b62866",
			"owner()": "8da5cb5b",
			"productCount()": "e0f6ef87",
			"productIds(string)": "542a61d2",
			"products(uint256)": "7acc0b20"
		}
	},
	"abi": [
		{
			"inputs": [
				{
					"internalType": "address payable",
					"name": "_owner",
					"type": "address"
				}
			],
			"stateMutability": "nonpayable",
			"type": "constructor"
		},
		{
			"anonymous": false,
			"inputs": [
				{
					"indexed": false,
					"internalType": "address",
					"name": "buyer",
					"type": "address"
				},
				{
					"indexed": false,
					"internalType": "string",
					"name": "productName",
					"type": "string"
				},
				{
					"indexed": false,
					"internalType": "uint256",
					"name": "price",
					"type": "uint256"
				}
			],
			"name": "ProductPurchased",
			"type": "event"
		},
		{
			"inputs": [
				{
					"internalType": "string",
					"name": "_name",
					"type": "string"
				},
				{
					"internalType": "uint256",
					"name": "_price",
					"type": "uint256"
				},
				{
					"internalType": "uint256",
					"name": "_quantity",
					"type": "uint256"
				}
			],
			"name": "addProduct",
			"outputs": [],
			"stateMutability": "nonpayable",
			"type": "function"
		},
		{
			"inputs": [
				{
					"internalType": "uint256",
					"name": "_productId",
					"type": "uint256"
				},
				{
					"internalType": "uint256",
					"name": "kolicina",
					"type": "uint256"
				}
			],
			"name": "buyProduct",
			"outputs": [],
			"stateMutability": "payable",
			"type": "function"
		},
		{
			"inputs": [],
			"name": "owner",
			"outputs": [
				{
					"internalType": "address payable",
					"name": "",
					"type": "address"
				}
			],
			"stateMutability": "view",
			"type": "function"
		},
		{
			"inputs": [],
			"name": "productCount",
			"outputs": [
				{
					"internalType": "uint256",
					"name": "",
					"type": "uint256"
				}
			],
			"stateMutability": "view",
			"type": "function"
		},
		{
			"inputs": [
				{
					"internalType": "string",
					"name": "",
					"type": "string"
				}
			],
			"name": "productIds",
			"outputs": [
				{
					"internalType": "uint256",
					"name": "",
					"type": "uint256"
				}
			],
			"stateMutability": "view",
			"type": "function"
		},
		{
			"inputs": [
				{
					"internalType": "uint256",
					"name": "",
					"type": "uint256"
				}
			],
			"name": "products",
			"outputs": [
				{
					"internalType": "string",
					"name": "name",
					"type": "string"
				},
				{
					"internalType": "uint256",
					"name": "price",
					"type": "uint256"
				},
				{
					"internalType": "uint256",
					"name": "quantity",
					"type": "uint256"
				}
			],
			"stateMutability": "view",
			"type": "function"
		}
	]
}